{
  "_format": "hh-sol-artifact-1",
  "contractName": "MyEpicNFT",
  "sourceName": "contracts/MyEpicNFT.sol",
  "abi": [
    {
      "inputs": [],
      "stateMutability": "nonpayable",
      "type": "constructor"
    },
    {
      "anonymous": false,
      "inputs": [
        {
          "indexed": true,
          "internalType": "address",
          "name": "owner",
          "type": "address"
        },
        {
          "indexed": true,
          "internalType": "address",
          "name": "approved",
          "type": "address"
        },
        {
          "indexed": true,
          "internalType": "uint256",
          "name": "tokenId",
          "type": "uint256"
        }
      ],
      "name": "Approval",
      "type": "event"
    },
    {
      "anonymous": false,
      "inputs": [
        {
          "indexed": true,
          "internalType": "address",
          "name": "owner",
          "type": "address"
        },
        {
          "indexed": true,
          "internalType": "address",
          "name": "operator",
          "type": "address"
        },
        {
          "indexed": false,
          "internalType": "bool",
          "name": "approved",
          "type": "bool"
        }
      ],
      "name": "ApprovalForAll",
      "type": "event"
    },
    {
      "anonymous": false,
      "inputs": [
        {
          "indexed": false,
          "internalType": "address",
          "name": "sender",
          "type": "address"
        },
        {
          "indexed": false,
          "internalType": "uint256",
          "name": "tokenId",
          "type": "uint256"
        }
      ],
      "name": "NewEpicNFTMinted",
      "type": "event"
    },
    {
      "anonymous": false,
      "inputs": [
        {
          "indexed": true,
          "internalType": "address",
          "name": "from",
          "type": "address"
        },
        {
          "indexed": true,
          "internalType": "address",
          "name": "to",
          "type": "address"
        },
        {
          "indexed": true,
          "internalType": "uint256",
          "name": "tokenId",
          "type": "uint256"
        }
      ],
      "name": "Transfer",
      "type": "event"
    },
    {
      "inputs": [
        {
          "internalType": "address",
          "name": "to",
          "type": "address"
        },
        {
          "internalType": "uint256",
          "name": "tokenId",
          "type": "uint256"
        }
      ],
      "name": "approve",
      "outputs": [],
      "stateMutability": "nonpayable",
      "type": "function"
    },
    {
      "inputs": [
        {
          "internalType": "address",
          "name": "owner",
          "type": "address"
        }
      ],
      "name": "balanceOf",
      "outputs": [
        {
          "internalType": "uint256",
          "name": "",
          "type": "uint256"
        }
      ],
      "stateMutability": "view",
      "type": "function"
    },
    {
      "inputs": [
        {
          "internalType": "uint256",
          "name": "tokenId",
          "type": "uint256"
        }
      ],
      "name": "getApproved",
      "outputs": [
        {
          "internalType": "address",
          "name": "",
          "type": "address"
        }
      ],
      "stateMutability": "view",
      "type": "function"
    },
    {
      "inputs": [],
      "name": "getTotalNFTsMintedCount",
      "outputs": [
        {
          "internalType": "uint256",
          "name": "",
          "type": "uint256"
        }
      ],
      "stateMutability": "view",
      "type": "function"
    },
    {
      "inputs": [
        {
          "internalType": "address",
          "name": "owner",
          "type": "address"
        },
        {
          "internalType": "address",
          "name": "operator",
          "type": "address"
        }
      ],
      "name": "isApprovedForAll",
      "outputs": [
        {
          "internalType": "bool",
          "name": "",
          "type": "bool"
        }
      ],
      "stateMutability": "view",
      "type": "function"
    },
    {
      "inputs": [],
      "name": "makeAnEpicNFT",
      "outputs": [],
      "stateMutability": "nonpayable",
      "type": "function"
    },
    {
      "inputs": [],
      "name": "name",
      "outputs": [
        {
          "internalType": "string",
          "name": "",
          "type": "string"
        }
      ],
      "stateMutability": "view",
      "type": "function"
    },
    {
      "inputs": [
        {
          "internalType": "uint256",
          "name": "tokenId",
          "type": "uint256"
        }
      ],
      "name": "ownerOf",
      "outputs": [
        {
          "internalType": "address",
          "name": "",
          "type": "address"
        }
      ],
      "stateMutability": "view",
      "type": "function"
    },
    {
      "inputs": [
        {
          "internalType": "uint256",
          "name": "tokenId",
          "type": "uint256"
        }
      ],
      "name": "pickRandomFirstWord",
      "outputs": [
        {
          "internalType": "string",
          "name": "",
          "type": "string"
        }
      ],
      "stateMutability": "view",
      "type": "function"
    },
    {
      "inputs": [
        {
          "internalType": "uint256",
          "name": "tokenId",
          "type": "uint256"
        }
      ],
      "name": "pickRandomSecondWord",
      "outputs": [
        {
          "internalType": "string",
          "name": "",
          "type": "string"
        }
      ],
      "stateMutability": "view",
      "type": "function"
    },
    {
      "inputs": [
        {
          "internalType": "uint256",
          "name": "tokenId",
          "type": "uint256"
        }
      ],
      "name": "pickRandomThirdWord",
      "outputs": [
        {
          "internalType": "string",
          "name": "",
          "type": "string"
        }
      ],
      "stateMutability": "view",
      "type": "function"
    },
    {
      "inputs": [
        {
          "internalType": "address",
          "name": "from",
          "type": "address"
        },
        {
          "internalType": "address",
          "name": "to",
          "type": "address"
        },
        {
          "internalType": "uint256",
          "name": "tokenId",
          "type": "uint256"
        }
      ],
      "name": "safeTransferFrom",
      "outputs": [],
      "stateMutability": "nonpayable",
      "type": "function"
    },
    {
      "inputs": [
        {
          "internalType": "address",
          "name": "from",
          "type": "address"
        },
        {
          "internalType": "address",
          "name": "to",
          "type": "address"
        },
        {
          "internalType": "uint256",
          "name": "tokenId",
          "type": "uint256"
        },
        {
          "internalType": "bytes",
          "name": "_data",
          "type": "bytes"
        }
      ],
      "name": "safeTransferFrom",
      "outputs": [],
      "stateMutability": "nonpayable",
      "type": "function"
    },
    {
      "inputs": [
        {
          "internalType": "address",
          "name": "operator",
          "type": "address"
        },
        {
          "internalType": "bool",
          "name": "approved",
          "type": "bool"
        }
      ],
      "name": "setApprovalForAll",
      "outputs": [],
      "stateMutability": "nonpayable",
      "type": "function"
    },
    {
      "inputs": [
        {
          "internalType": "bytes4",
          "name": "interfaceId",
          "type": "bytes4"
        }
      ],
      "name": "supportsInterface",
      "outputs": [
        {
          "internalType": "bool",
          "name": "",
          "type": "bool"
        }
      ],
      "stateMutability": "view",
      "type": "function"
    },
    {
      "inputs": [],
      "name": "symbol",
      "outputs": [
        {
          "internalType": "string",
          "name": "",
          "type": "string"
        }
      ],
      "stateMutability": "view",
      "type": "function"
    },
    {
      "inputs": [
        {
          "internalType": "uint256",
          "name": "tokenId",
          "type": "uint256"
        }
      ],
      "name": "tokenURI",
      "outputs": [
        {
          "internalType": "string",
          "name": "",
          "type": "string"
        }
      ],
      "stateMutability": "view",
      "type": "function"
    },
    {
      "inputs": [
        {
          "internalType": "address",
          "name": "from",
          "type": "address"
        },
        {
          "internalType": "address",
          "name": "to",
          "type": "address"
        },
        {
          "internalType": "uint256",
          "name": "tokenId",
          "type": "uint256"
        }
      ],
      "name": "transferFrom",
      "outputs": [],
      "stateMutability": "nonpayable",
      "type": "function"
    }
  ],
  "bytecode": "0x6080604052600560085560405180610160016040528061012f81526020016200541a61012f9139600990805190602001906200003d9291906200171e565b506040518061034001604052806040518060400160405280600a81526020017f416767726573736976650000000000000000000000000000000000000000000081525081526020016040518060400160405280600581526020017f427261766500000000000000000000000000000000000000000000000000000081525081526020016040518060400160405280600881526020017f436865657266756c00000000000000000000000000000000000000000000000081525081526020016040518060400160405280600a81526020017f44656c6967687466756c0000000000000000000000000000000000000000000081525081526020016040518060400160405280600481526020017f4461726b0000000000000000000000000000000000000000000000000000000081525081526020016040518060400160405280600b81526020017f456e636f75726167696e6700000000000000000000000000000000000000000081525081526020016040518060400160405280600781526020017f4672616e7469630000000000000000000000000000000000000000000000000081525081526020016040518060400160405280600981526020017f47726f746573717565000000000000000000000000000000000000000000000081525081526020016040518060400160405280600881526020017f486f727269626c6500000000000000000000000000000000000000000000000081525081526020016040518060400160405280600581526020017f497463687900000000000000000000000000000000000000000000000000000081525081526020016040518060400160405280600681526020017f4c6976656c79000000000000000000000000000000000000000000000000000081525081526020016040518060400160405280600a81526020017f4d7973746572696f75730000000000000000000000000000000000000000000081525081526020016040518060400160405280600781526020017f4e6572766f75730000000000000000000000000000000000000000000000000081525081526020016040518060400160405280600881526020017f4f62656469656e7400000000000000000000000000000000000000000000000081525081526020016040518060400160405280600981526020017f4f626e6f78696f7573000000000000000000000000000000000000000000000081525081526020016040518060400160405280600881526020017f506c656173616e7400000000000000000000000000000000000000000000000081525081526020016040518060400160405280600681526020017f517561696e74000000000000000000000000000000000000000000000000000081525081526020016040518060400160405280600981526020017f526570756c73697665000000000000000000000000000000000000000000000081525081526020016040518060400160405280600381526020017f536879000000000000000000000000000000000000000000000000000000000081525081526020016040518060400160405280600581526020017f53696c6c7900000000000000000000000000000000000000000000000000000081525081526020016040518060400160405280600881526020017f53706c656e64696400000000000000000000000000000000000000000000000081525081526020016040518060400160405280600681526020017f54656e646572000000000000000000000000000000000000000000000000000081525081526020016040518060400160405280600781526020017f556e757375616c0000000000000000000000000000000000000000000000000081525081526020016040518060400160405280600781526020017f557074696768740000000000000000000000000000000000000000000000000081525081526020016040518060400160405280600981526020017f57616e646572696e67000000000000000000000000000000000000000000000081525081526020016040518060400160405280600481526020017f5a616e7900000000000000000000000000000000000000000000000000000000815250815250600a90601a62000658929190620017af565b506040518061038001604052806040518060400160405280600981526020017f41736877696e646572000000000000000000000000000000000000000000000081525081526020016040518060400160405280600a81526020017f426f77747275636b6c650000000000000000000000000000000000000000000081525081526020016040518060400160405280600781526020017f43616e746175720000000000000000000000000000000000000000000000000081525081526020016040518060400160405280600881526020017f4368696d6165726100000000000000000000000000000000000000000000000081525081526020016040518060400160405280600981526020017f44656d696775697365000000000000000000000000000000000000000000000081525081526020016040518060400160405280600681526020017f447261676f6e000000000000000000000000000000000000000000000000000081525081526020016040518060400160405280600881526020017f4572756d70656e7400000000000000000000000000000000000000000000000081525081526020016040518060400160405280600581526020017f466169727900000000000000000000000000000000000000000000000000000081525081526020016040518060400160405280600981526020017f466972656472616b65000000000000000000000000000000000000000000000081525081526020016040518060400160405280600781526020017f46776f6f7065720000000000000000000000000000000000000000000000000081525081526020016040518060400160405280600581526020017f47686f756c00000000000000000000000000000000000000000000000000000081525081526020016040518060400160405280600581526020017f476e6f6d6500000000000000000000000000000000000000000000000000000081525081526020016040518060400160405280600781526020017f4772696666696e0000000000000000000000000000000000000000000000000081525081526020016040518060400160405280600a81526020017f486970706f67726966660000000000000000000000000000000000000000000081525081526020016040518060400160405280600381526020017f496d70000000000000000000000000000000000000000000000000000000000081525081526020016040518060400160405280600981526020017f4a61636b616c6f7065000000000000000000000000000000000000000000000081525081526020016040518060400160405280600981526020017f4d616e7469636f7265000000000000000000000000000000000000000000000081525081526020016040518060400160405280600781526020017f4e6966666c65720000000000000000000000000000000000000000000000000081525081526020016040518060400160405280600781526020017f50686f656e69780000000000000000000000000000000000000000000000000081525081526020016040518060400160405280600581526020017f506978696500000000000000000000000000000000000000000000000000000081525081526020016040518060400160405280600a81526020017f53616c616d616e6465720000000000000000000000000000000000000000000081525081526020016040518060400160405280600581526020017f536e61696c00000000000000000000000000000000000000000000000000000081525081526020016040518060400160405280600681526020017f537069646572000000000000000000000000000000000000000000000000000081525081526020016040518060400160405280600481526020017f546f61640000000000000000000000000000000000000000000000000000000081525081526020016040518060400160405280600581526020017f54726f6c6c00000000000000000000000000000000000000000000000000000081525081526020016040518060400160405280600781526020017f556e69636f726e0000000000000000000000000000000000000000000000000081525081526020016040518060400160405280600881526020017f57657265776f6c6600000000000000000000000000000000000000000000000081525081526020016040518060400160405280600481526020017f5965746900000000000000000000000000000000000000000000000000000000815250815250600b90601c62000ce992919062001816565b506040518061048001604052806040518060400160405280600381526020017f456172000000000000000000000000000000000000000000000000000000000081525081526020016040518060400160405280600481526020017f46616e670000000000000000000000000000000000000000000000000000000081525081526020016040518060400160405280600581526020017f546f6f746800000000000000000000000000000000000000000000000000000081525081526020016040518060400160405280600581526020017f50616e747300000000000000000000000000000000000000000000000000000081525081526020016040518060400160405280600581526020017f536869727400000000000000000000000000000000000000000000000000000081525081526020016040518060400160405280600781526020017f476c61737365730000000000000000000000000000000000000000000000000081525081526020016040518060400160405280600581526020017f476c6f766500000000000000000000000000000000000000000000000000000081525081526020016040518060400160405280600481526020017f546f65730000000000000000000000000000000000000000000000000000000081525081526020016040518060400160405280600381526020017f457965000000000000000000000000000000000000000000000000000000000081525081526020016040518060400160405280600581526020017f466c65736800000000000000000000000000000000000000000000000000000081525081526020016040518060400160405280600381526020017f456767000000000000000000000000000000000000000000000000000000000081525081526020016040518060400160405280600681526020017f546f6e677565000000000000000000000000000000000000000000000000000081525081526020016040518060400160405280600481526020017f4b6e65650000000000000000000000000000000000000000000000000000000081525081526020016040518060400160405280600581526020017f456c626f7700000000000000000000000000000000000000000000000000000081525081526020016040518060400160405280600481526020017f486169720000000000000000000000000000000000000000000000000000000081525081526020016040518060400160405280600781526020017f466561746865720000000000000000000000000000000000000000000000000081525081526020016040518060400160405280600681526020017f5363616c6573000000000000000000000000000000000000000000000000000081525081526020016040518060400160405280600481526020017f5461696c0000000000000000000000000000000000000000000000000000000081525081526020016040518060400160405280600581526020017f486561727400000000000000000000000000000000000000000000000000000081525081526020016040518060400160405280600481526020017f536f756c0000000000000000000000000000000000000000000000000000000081525081526020016040518060400160405280600781526020017f45796562726f770000000000000000000000000000000000000000000000000081525081526020016040518060400160405280600481526020017f53686f650000000000000000000000000000000000000000000000000000000081525081526020016040518060400160405280600581526020017f57696e677300000000000000000000000000000000000000000000000000000081525081526020016040518060400160405280600481526020017f436c75620000000000000000000000000000000000000000000000000000000081525081526020016040518060400160405280600581526020017f53776f726400000000000000000000000000000000000000000000000000000081525081526020016040518060400160405280600681526020017f446167676572000000000000000000000000000000000000000000000000000081525081526020016040518060400160405280600881526020017f436861696e73617700000000000000000000000000000000000000000000000081525081526020016040518060400160405280600481526020017f486f726e0000000000000000000000000000000000000000000000000000000081525081526020016040518060400160405280600781526020017f426c75626265720000000000000000000000000000000000000000000000000081525081526020016040518060400160405280600481526020017f536b696e0000000000000000000000000000000000000000000000000000000081525081526020016040518060400160405280600381526020017f467572000000000000000000000000000000000000000000000000000000000081525081526020016040518060400160405280600581526020017f546f61737400000000000000000000000000000000000000000000000000000081525081526020016040518060400160405280600681526020017f427572676572000000000000000000000000000000000000000000000000000081525081526020016040518060400160405280600581526020017f537465616b00000000000000000000000000000000000000000000000000000081525081526020016040518060400160405280600581526020017f4c6976657200000000000000000000000000000000000000000000000000000081525081526020016040518060400160405280600681526020017f4b69646e65790000000000000000000000000000000000000000000000000000815250815250600c906024620015529291906200187d565b503480156200156057600080fd5b506040518060400160405280600981526020017f5371756172654e465400000000000000000000000000000000000000000000008152506040518060400160405280600681526020017f53515541524500000000000000000000000000000000000000000000000000008152508160009080519060200190620015e59291906200171e565b508060019080519060200190620015fe9291906200171e565b5050506200164c6040518060400160405280601e81526020017f54686973206973206d79204e465420636f6e74726163742e20576f61682100008152506200165260201b620012a71760201c565b62001a9e565b620016f281604051602401620016699190620019b2565b6040516020818303038152906040527f41304fac000000000000000000000000000000000000000000000000000000007bffffffffffffffffffffffffffffffffffffffffffffffffffffffff19166020820180517bffffffffffffffffffffffffffffffffffffffffffffffffffffffff8381831617835250505050620016f560201b60201c565b50565b60008151905060006a636f6e736f6c652e6c6f679050602083016000808483855afa5050505050565b8280546200172c9062001a28565b90600052602060002090601f0160209004810192826200175057600085556200179c565b82601f106200176b57805160ff19168380011785556200179c565b828001600101855582156200179c579182015b828111156200179b5782518255916020019190600101906200177e565b5b509050620017ab9190620018e4565b5090565b82805482825590600052602060002090810192821562001803579160200282015b8281111562001802578251829080519060200190620017f19291906200171e565b5091602001919060010190620017d0565b5b50905062001812919062001903565b5090565b8280548282559060005260206000209081019282156200186a579160200282015b8281111562001869578251829080519060200190620018589291906200171e565b509160200191906001019062001837565b5b50905062001879919062001903565b5090565b828054828255906000526020600020908101928215620018d1579160200282015b82811115620018d0578251829080519060200190620018bf9291906200171e565b50916020019190600101906200189e565b5b509050620018e0919062001903565b5090565b5b80821115620018ff576000816000905550600101620018e5565b5090565b5b808211156200192757600081816200191d91906200192b565b5060010162001904565b5090565b508054620019399062001a28565b6000825580601f106200194d57506200196e565b601f0160209004906000526020600020908101906200196d9190620018e4565b5b50565b60006200197e82620019d6565b6200198a8185620019e1565b93506200199c818560208601620019f2565b620019a78162001a8d565b840191505092915050565b60006020820190508181036000830152620019ce818462001971565b905092915050565b600081519050919050565b600082825260208201905092915050565b60005b8381101562001a12578082015181840152602081019050620019f5565b8381111562001a22576000848401525b50505050565b6000600282049050600182168062001a4157607f821691505b6020821081141562001a585762001a5762001a5e565b5b50919050565b7f4e487b7100000000000000000000000000000000000000000000000000000000600052602260045260246000fd5b6000601f19601f8301169050919050565b61396c8062001aae6000396000f3fe608060405234801561001057600080fd5b50600436106101165760003560e01c806395d89b41116100a2578063b88d4fde11610071578063b88d4fde14610305578063c575757a14610321578063c87b56dd14610351578063de9d132f14610381578063e985e9c51461038b57610116565b806395d89b411461027d578063a22cb4651461029b578063aaae0a08146102b7578063b187301f146102d557610116565b806323b872dd116100e957806323b872dd146101b55780632de38d68146101d157806342842e0e146102015780636352211e1461021d57806370a082311461024d57610116565b806301ffc9a71461011b57806306fdde031461014b578063081812fc14610169578063095ea7b314610199575b600080fd5b6101356004803603810190610130919061253a565b6103bb565b60405161014291906131c2565b60405180910390f35b61015361049d565b60405161016091906131dd565b60405180910390f35b610183600480360381019061017e919061258c565b61052f565b6040516101909190613132565b60405180910390f35b6101b360048036038101906101ae91906124fe565b6105b4565b005b6101cf60048036038101906101ca91906123f8565b6106cc565b005b6101eb60048036038101906101e6919061258c565b61072c565b6040516101f891906131dd565b60405180910390f35b61021b600480360381019061021691906123f8565b61084a565b005b6102376004803603810190610232919061258c565b61086a565b6040516102449190613132565b60405180910390f35b61026760048036038101906102629190612393565b61091c565b604051610274919061345d565b60405180910390f35b6102856109d4565b60405161029291906131dd565b60405180910390f35b6102b560048036038101906102b091906124c2565b610a66565b005b6102bf610be7565b6040516102cc919061345d565b60405180910390f35b6102ef60048036038101906102ea919061258c565b610bf8565b6040516102fc91906131dd565b60405180910390f35b61031f600480360381019061031a9190612447565b610d16565b005b61033b6004803603810190610336919061258c565b610d78565b60405161034891906131dd565b60405180910390f35b61036b6004803603810190610366919061258c565b610e96565b60405161037891906131dd565b60405180910390f35b610389610fe8565b005b6103a560048036038101906103a091906123bc565b611213565b6040516103b291906131c2565b60405180910390f35b60007f80ac58cd000000000000000000000000000000000000000000000000000000007bffffffffffffffffffffffffffffffffffffffffffffffffffffffff1916827bffffffffffffffffffffffffffffffffffffffffffffffffffffffff1916148061048657507f5b5e139f000000000000000000000000000000000000000000000000000000007bffffffffffffffffffffffffffffffffffffffffffffffffffffffff1916827bffffffffffffffffffffffffffffffffffffffffffffffffffffffff1916145b80610496575061049582611340565b5b9050919050565b6060600080546104ac906136fc565b80601f01602080910402602001604051908101604052809291908181526020018280546104d8906136fc565b80156105255780601f106104fa57610100808354040283529160200191610525565b820191906000526020600020905b81548152906001019060200180831161050857829003601f168201915b5050505050905090565b600061053a826113aa565b610579576040517f08c379a0000000000000000000000000000000000000000000000000000000008152600401610570906133bd565b60405180910390fd5b6004600083815260200190815260200160002060009054906101000a900473ffffffffffffffffffffffffffffffffffffffff169050919050565b60006105bf8261086a565b90508073ffffffffffffffffffffffffffffffffffffffff168373ffffffffffffffffffffffffffffffffffffffff161415610630576040517f08c379a00000000000000000000000000000000000000000000000000000000081526004016106279061341d565b60405180910390fd5b8073ffffffffffffffffffffffffffffffffffffffff1661064f611416565b73ffffffffffffffffffffffffffffffffffffffff16148061067e575061067d81610678611416565b611213565b5b6106bd576040517f08c379a00000000000000000000000000000000000000000000000000000000081526004016106b4906132fd565b60405180910390fd5b6106c7838361141e565b505050565b6106dd6106d7611416565b826114d7565b61071c576040517f08c379a00000000000000000000000000000000000000000000000000000000081526004016107139061343d565b60405180910390fd5b6107278383836115b5565b505050565b6060600061076061073c84611811565b60405160200161074c91906130ee565b6040516020818303038152906040526119be565b9050600a80549050816107739190613777565b9050600a81815481106107af577f4e487b7100000000000000000000000000000000000000000000000000000000600052603260045260246000fd5b9060005260206000200180546107c4906136fc565b80601f01602080910402602001604051908101604052809291908181526020018280546107f0906136fc565b801561083d5780601f106108125761010080835404028352916020019161083d565b820191906000526020600020905b81548152906001019060200180831161082057829003601f168201915b5050505050915050919050565b61086583838360405180602001604052806000815250610d16565b505050565b6000806002600084815260200190815260200160002060009054906101000a900473ffffffffffffffffffffffffffffffffffffffff169050600073ffffffffffffffffffffffffffffffffffffffff168173ffffffffffffffffffffffffffffffffffffffff161415610913576040517f08c379a000000000000000000000000000000000000000000000000000000000815260040161090a9061333d565b60405180910390fd5b80915050919050565b60008073ffffffffffffffffffffffffffffffffffffffff168273ffffffffffffffffffffffffffffffffffffffff16141561098d576040517f08c379a00000000000000000000000000000000000000000000000000000000081526004016109849061331d565b60405180910390fd5b600360008373ffffffffffffffffffffffffffffffffffffffff1673ffffffffffffffffffffffffffffffffffffffff168152602001908152602001600020549050919050565b6060600180546109e3906136fc565b80601f0160208091040260200160405190810160405280929190818152602001828054610a0f906136fc565b8015610a5c5780601f10610a3157610100808354040283529160200191610a5c565b820191906000526020600020905b815481529060010190602001808311610a3f57829003601f168201915b5050505050905090565b610a6e611416565b73ffffffffffffffffffffffffffffffffffffffff168273ffffffffffffffffffffffffffffffffffffffff161415610adc576040517f08c379a0000000000000000000000000000000000000000000000000000000008152600401610ad3906132bd565b60405180910390fd5b8060056000610ae9611416565b73ffffffffffffffffffffffffffffffffffffffff1673ffffffffffffffffffffffffffffffffffffffff16815260200190815260200160002060008473ffffffffffffffffffffffffffffffffffffffff1673ffffffffffffffffffffffffffffffffffffffff16815260200190815260200160002060006101000a81548160ff0219169083151502179055508173ffffffffffffffffffffffffffffffffffffffff16610b96611416565b73ffffffffffffffffffffffffffffffffffffffff167f17307eab39ab6107e8899845ad3d59bd9653f200f220920489ca2b5937696c3183604051610bdb91906131c2565b60405180910390a35050565b6000610bf360076119f1565b905090565b60606000610c2c610c0884611811565b604051602001610c189190613087565b6040516020818303038152906040526119be565b9050600b8054905081610c3f9190613777565b9050600b8181548110610c7b577f4e487b7100000000000000000000000000000000000000000000000000000000600052603260045260246000fd5b906000526020600020018054610c90906136fc565b80601f0160208091040260200160405190810160405280929190818152602001828054610cbc906136fc565b8015610d095780601f10610cde57610100808354040283529160200191610d09565b820191906000526020600020905b815481529060010190602001808311610cec57829003601f168201915b5050505050915050919050565b610d27610d21611416565b836114d7565b610d66576040517f08c379a0000000000000000000000000000000000000000000000000000000008152600401610d5d9061343d565b60405180910390fd5b610d72848484846119ff565b50505050565b60606000610dac610d8884611811565b604051602001610d989190613065565b6040516020818303038152906040526119be565b9050600c8054905081610dbf9190613777565b9050600c8181548110610dfb577f4e487b7100000000000000000000000000000000000000000000000000000000600052603260045260246000fd5b906000526020600020018054610e10906136fc565b80601f0160208091040260200160405190810160405280929190818152602001828054610e3c906136fc565b8015610e895780601f10610e5e57610100808354040283529160200191610e89565b820191906000526020600020905b815481529060010190602001808311610e6c57829003601f168201915b5050505050915050919050565b6060610ea1826113aa565b610ee0576040517f08c379a0000000000000000000000000000000000000000000000000000000008152600401610ed79061339d565b60405180910390fd5b6000600660008481526020019081526020016000208054610f00906136fc565b80601f0160208091040260200160405190810160405280929190818152602001828054610f2c906136fc565b8015610f795780601f10610f4e57610100808354040283529160200191610f79565b820191906000526020600020905b815481529060010190602001808311610f5c57829003601f168201915b505050505090506000610f8a611a5b565b9050600081511415610fa0578192505050610fe3565b600082511115610fd5578082604051602001610fbd929190612fe1565b60405160208183030381529060405292505050610fe3565b610fde84611a72565b925050505b919050565b6000610ff460076119f1565b9050806008541161103a576040517f08c379a00000000000000000000000000000000000000000000000000000000081526004016110319061323d565b60405180910390fd5b60006110458261072c565b9050600061105283610bf8565b9050600061105f84610d78565b9050600083838360405160200161107893929190613005565b6040516020818303038152906040529050600060098260405160200161109f929190613036565b604051602081830303815290604052905060006110e4836110bf84611b19565b6040516020016110d09291906130a9565b604051602081830303815290604052611b19565b90506000816040516020016110f99190613110565b60405160208183030381529060405290506111486040518060400160405280601581526020017f0a2d2d2d2d2d2d2d2d2d2d2d2d2d2d2d2d2d2d2d2d00000000000000000000008152506112a7565b611151816112a7565b61118f6040518060400160405280601581526020017f2d2d2d2d2d2d2d2d2d2d2d2d2d2d2d2d2d2d2d2d0a00000000000000000000008152506112a7565b6111993389611cd7565b6111a38882611cf5565b6111ad6007611d69565b6111d06040518060600160405280602581526020016138d2602591398933611d7f565b7febb98688741ffa4c7589bf325de30cf7becb63de567842e1ccdb6cb949fdc82c3389604051611201929190613199565b60405180910390a15050505050505050565b6000600560008473ffffffffffffffffffffffffffffffffffffffff1673ffffffffffffffffffffffffffffffffffffffff16815260200190815260200160002060008373ffffffffffffffffffffffffffffffffffffffff1673ffffffffffffffffffffffffffffffffffffffff16815260200190815260200160002060009054906101000a900460ff16905092915050565b61133d816040516024016112bb91906131dd565b6040516020818303038152906040527f41304fac000000000000000000000000000000000000000000000000000000007bffffffffffffffffffffffffffffffffffffffffffffffffffffffff19166020820180517bffffffffffffffffffffffffffffffffffffffffffffffffffffffff8381831617835250505050611e1e565b50565b60007f01ffc9a7000000000000000000000000000000000000000000000000000000007bffffffffffffffffffffffffffffffffffffffffffffffffffffffff1916827bffffffffffffffffffffffffffffffffffffffffffffffffffffffff1916149050919050565b60008073ffffffffffffffffffffffffffffffffffffffff166002600084815260200190815260200160002060009054906101000a900473ffffffffffffffffffffffffffffffffffffffff1673ffffffffffffffffffffffffffffffffffffffff1614159050919050565b600033905090565b816004600083815260200190815260200160002060006101000a81548173ffffffffffffffffffffffffffffffffffffffff021916908373ffffffffffffffffffffffffffffffffffffffff160217905550808273ffffffffffffffffffffffffffffffffffffffff166114918361086a565b73ffffffffffffffffffffffffffffffffffffffff167f8c5be1e5ebec7d5bd14f71427d1e84f3dd0314c0f7b2291e5b200ac8c7c3b92560405160405180910390a45050565b60006114e2826113aa565b611521576040517f08c379a0000000000000000000000000000000000000000000000000000000008152600401611518906132dd565b60405180910390fd5b600061152c8361086a565b90508073ffffffffffffffffffffffffffffffffffffffff168473ffffffffffffffffffffffffffffffffffffffff16148061159b57508373ffffffffffffffffffffffffffffffffffffffff166115838461052f565b73ffffffffffffffffffffffffffffffffffffffff16145b806115ac57506115ab8185611213565b5b91505092915050565b8273ffffffffffffffffffffffffffffffffffffffff166115d58261086a565b73ffffffffffffffffffffffffffffffffffffffff161461162b576040517f08c379a0000000000000000000000000000000000000000000000000000000008152600401611622906133dd565b60405180910390fd5b600073ffffffffffffffffffffffffffffffffffffffff168273ffffffffffffffffffffffffffffffffffffffff16141561169b576040517f08c379a00000000000000000000000000000000000000000000000000000000081526004016116929061329d565b60405180910390fd5b6116a6838383611e47565b6116b160008261141e565b6001600360008573ffffffffffffffffffffffffffffffffffffffff1673ffffffffffffffffffffffffffffffffffffffff16815260200190815260200160002060008282546117019190613612565b925050819055506001600360008473ffffffffffffffffffffffffffffffffffffffff1673ffffffffffffffffffffffffffffffffffffffff16815260200190815260200160002060008282546117589190613531565b92505081905550816002600083815260200190815260200160002060006101000a81548173ffffffffffffffffffffffffffffffffffffffff021916908373ffffffffffffffffffffffffffffffffffffffff160217905550808273ffffffffffffffffffffffffffffffffffffffff168473ffffffffffffffffffffffffffffffffffffffff167fddf252ad1be2c89b69c2b068fc378daa952ba7f163c4a11628f55a4df523b3ef60405160405180910390a4505050565b60606000821415611859576040518060400160405280600181526020017f300000000000000000000000000000000000000000000000000000000000000081525090506119b9565b600082905060005b6000821461188b5780806118749061372e565b915050600a826118849190613587565b9150611861565b60008167ffffffffffffffff8111156118cd577f4e487b7100000000000000000000000000000000000000000000000000000000600052604160045260246000fd5b6040519080825280601f01601f1916602001820160405280156118ff5781602001600182028036833780820191505090505b5090505b600085146119b2576001826119189190613612565b9150600a856119279190613777565b60306119339190613531565b60f81b81838151811061196f577f4e487b7100000000000000000000000000000000000000000000000000000000600052603260045260246000fd5b60200101907effffffffffffffffffffffffffffffffffffffffffffffffffffffffffffff1916908160001a905350600a856119ab9190613587565b9450611903565b8093505050505b919050565b6000816040516020016119d19190612fca565b6040516020818303038152906040528051906020012060001c9050919050565b600081600001549050919050565b611a0a8484846115b5565b611a1684848484611e4c565b611a55576040517f08c379a0000000000000000000000000000000000000000000000000000000008152600401611a4c9061325d565b60405180910390fd5b50505050565b606060405180602001604052806000815250905090565b6060611a7d826113aa565b611abc576040517f08c379a0000000000000000000000000000000000000000000000000000000008152600401611ab3906133fd565b60405180910390fd5b6000611ac6611a5b565b90506000815111611ae65760405180602001604052806000815250611b11565b80611af084611811565b604051602001611b01929190612fe1565b6040516020818303038152906040525b915050919050565b60606000825190506000811415611b425760405180602001604052806000815250915050611cd2565b60006003600283611b539190613531565b611b5d9190613587565b6004611b6991906135b8565b90506000602082611b7a9190613531565b67ffffffffffffffff811115611bb9577f4e487b7100000000000000000000000000000000000000000000000000000000600052604160045260246000fd5b6040519080825280601f01601f191660200182016040528015611beb5781602001600182028036833780820191505090505b50905060006040518060600160405280604081526020016138f7604091399050600181016020830160005b86811015611c8f5760038101905062ffffff818a015116603f8160121c168401518060081b905060ff603f83600c1c1686015116810190508060081b905060ff603f8360061c1686015116810190508060081b905060ff603f831686015116810190508060e01b90508084526004840193505050611c16565b506003860660018114611ca95760028114611cb957611cc4565b613d3d60f01b6002830352611cc4565b603d60f81b60018303525b508484525050819450505050505b919050565b611cf1828260405180602001604052806000815250611fe3565b5050565b611cfe826113aa565b611d3d576040517f08c379a0000000000000000000000000000000000000000000000000000000008152600401611d349061335d565b60405180910390fd5b80600660008481526020019081526020016000209080519060200190611d6492919061221f565b505050565b6001816000016000828254019250508190555050565b611e19838383604051602401611d97939291906131ff565b6040516020818303038152906040527fe3849f79000000000000000000000000000000000000000000000000000000007bffffffffffffffffffffffffffffffffffffffffffffffffffffffff19166020820180517bffffffffffffffffffffffffffffffffffffffffffffffffffffffff8381831617835250505050611e1e565b505050565b60008151905060006a636f6e736f6c652e6c6f679050602083016000808483855afa5050505050565b505050565b6000611e6d8473ffffffffffffffffffffffffffffffffffffffff1661203e565b15611fd6578373ffffffffffffffffffffffffffffffffffffffff1663150b7a02611e96611416565b8786866040518563ffffffff1660e01b8152600401611eb8949392919061314d565b602060405180830381600087803b158015611ed257600080fd5b505af1925050508015611f0357506040513d601f19601f82011682018060405250810190611f009190612563565b60015b611f86573d8060008114611f33576040519150601f19603f3d011682016040523d82523d6000602084013e611f38565b606091505b50600081511415611f7e576040517f08c379a0000000000000000000000000000000000000000000000000000000008152600401611f759061325d565b60405180910390fd5b805181602001fd5b63150b7a0260e01b7bffffffffffffffffffffffffffffffffffffffffffffffffffffffff1916817bffffffffffffffffffffffffffffffffffffffffffffffffffffffff191614915050611fdb565b600190505b949350505050565b611fed8383612051565b611ffa6000848484611e4c565b612039576040517f08c379a00000000000000000000000000000000000000000000000000000000081526004016120309061325d565b60405180910390fd5b505050565b600080823b905060008111915050919050565b600073ffffffffffffffffffffffffffffffffffffffff168273ffffffffffffffffffffffffffffffffffffffff1614156120c1576040517f08c379a00000000000000000000000000000000000000000000000000000000081526004016120b89061337d565b60405180910390fd5b6120ca816113aa565b1561210a576040517f08c379a00000000000000000000000000000000000000000000000000000000081526004016121019061327d565b60405180910390fd5b61211660008383611e47565b6001600360008473ffffffffffffffffffffffffffffffffffffffff1673ffffffffffffffffffffffffffffffffffffffff16815260200190815260200160002060008282546121669190613531565b92505081905550816002600083815260200190815260200160002060006101000a81548173ffffffffffffffffffffffffffffffffffffffff021916908373ffffffffffffffffffffffffffffffffffffffff160217905550808273ffffffffffffffffffffffffffffffffffffffff16600073ffffffffffffffffffffffffffffffffffffffff167fddf252ad1be2c89b69c2b068fc378daa952ba7f163c4a11628f55a4df523b3ef60405160405180910390a45050565b82805461222b906136fc565b90600052602060002090601f01602090048101928261224d5760008555612294565b82601f1061226657805160ff1916838001178555612294565b82800160010185558215612294579182015b82811115612293578251825591602001919060010190612278565b5b5090506122a191906122a5565b5090565b5b808211156122be5760008160009055506001016122a6565b5090565b60006122d56122d0846134a9565b613478565b9050828152602081018484840111156122ed57600080fd5b6122f88482856136ba565b509392505050565b60008135905061230f81613875565b92915050565b6000813590506123248161388c565b92915050565b600081359050612339816138a3565b92915050565b60008151905061234e816138a3565b92915050565b600082601f83011261236557600080fd5b81356123758482602086016122c2565b91505092915050565b60008135905061238d816138ba565b92915050565b6000602082840312156123a557600080fd5b60006123b384828501612300565b91505092915050565b600080604083850312156123cf57600080fd5b60006123dd85828601612300565b92505060206123ee85828601612300565b9150509250929050565b60008060006060848603121561240d57600080fd5b600061241b86828701612300565b935050602061242c86828701612300565b925050604061243d8682870161237e565b9150509250925092565b6000806000806080858703121561245d57600080fd5b600061246b87828801612300565b945050602061247c87828801612300565b935050604061248d8782880161237e565b925050606085013567ffffffffffffffff8111156124aa57600080fd5b6124b687828801612354565b91505092959194509250565b600080604083850312156124d557600080fd5b60006124e385828601612300565b92505060206124f485828601612315565b9150509250929050565b6000806040838503121561251157600080fd5b600061251f85828601612300565b92505060206125308582860161237e565b9150509250929050565b60006020828403121561254c57600080fd5b600061255a8482850161232a565b91505092915050565b60006020828403121561257557600080fd5b60006125838482850161233f565b91505092915050565b60006020828403121561259e57600080fd5b60006125ac8482850161237e565b91505092915050565b6125be81613646565b82525050565b6125cd81613658565b82525050565b60006125de826134ee565b6125e88185613504565b93506125f88185602086016136c9565b61260181613864565b840191505092915050565b6000612617826134f9565b6126218185613515565b93506126318185602086016136c9565b61263a81613864565b840191505092915050565b6000612650826134f9565b61265a8185613526565b935061266a8185602086016136c9565b80840191505092915050565b60008154612683816136fc565b61268d8186613526565b945060018216600081146126a857600181146126b9576126ec565b60ff198316865281860193506126ec565b6126c2856134d9565b60005b838110156126e4578154818901526001820191506020810190506126c5565b838801955050505b50505092915050565b6000612702602283613515565b91507f534f4c44204f55543a205468657265732061206d696e74206c696d6974206f6660008301527f20350000000000000000000000000000000000000000000000000000000000006020830152604082019050919050565b6000612768603283613515565b91507f4552433732313a207472616e7366657220746f206e6f6e20455243373231526560008301527f63656976657220696d706c656d656e74657200000000000000000000000000006020830152604082019050919050565b60006127ce601c83613515565b91507f4552433732313a20746f6b656e20616c7265616479206d696e746564000000006000830152602082019050919050565b600061280e600a83613526565b91507f54484952445f574f5244000000000000000000000000000000000000000000006000830152600a82019050919050565b600061284e602483613515565b91507f4552433732313a207472616e7366657220746f20746865207a65726f2061646460008301527f72657373000000000000000000000000000000000000000000000000000000006020830152604082019050919050565b60006128b4601983613515565b91507f4552433732313a20617070726f766520746f2063616c6c6572000000000000006000830152602082019050919050565b60006128f4606383613526565b91507f222c20226465736372697074696f6e223a20224120686967686c79206163636c60008301527f61696d656420636f6c6c656374696f6e206f6620737175617265732e222c202260208301527f696d616765223a2022646174613a696d6167652f7376672b786d6c3b6261736560408301527f36342c00000000000000000000000000000000000000000000000000000000006060830152606382019050919050565b60006129a6600b83613526565b91507f5345434f4e445f574f52440000000000000000000000000000000000000000006000830152600b82019050919050565b60006129e6602c83613515565b91507f4552433732313a206f70657261746f7220717565727920666f72206e6f6e657860008301527f697374656e7420746f6b656e00000000000000000000000000000000000000006020830152604082019050919050565b6000612a4c600d83613526565b91507f3c2f746578743e3c2f7376673e000000000000000000000000000000000000006000830152600d82019050919050565b6000612a8c603883613515565b91507f4552433732313a20617070726f76652063616c6c6572206973206e6f74206f7760008301527f6e6572206e6f7220617070726f76656420666f7220616c6c00000000000000006020830152604082019050919050565b6000612af2602a83613515565b91507f4552433732313a2062616c616e636520717565727920666f7220746865207a6560008301527f726f2061646472657373000000000000000000000000000000000000000000006020830152604082019050919050565b6000612b58602983613515565b91507f4552433732313a206f776e657220717565727920666f72206e6f6e657869737460008301527f656e7420746f6b656e00000000000000000000000000000000000000000000006020830152604082019050919050565b6000612bbe602e83613515565b91507f45524337323155524953746f726167653a2055524920736574206f66206e6f6e60008301527f6578697374656e7420746f6b656e0000000000000000000000000000000000006020830152604082019050919050565b6000612c24600283613526565b91507f227d0000000000000000000000000000000000000000000000000000000000006000830152600282019050919050565b6000612c64602083613515565b91507f4552433732313a206d696e7420746f20746865207a65726f20616464726573736000830152602082019050919050565b6000612ca4603183613515565b91507f45524337323155524953746f726167653a2055524920717565727920666f722060008301527f6e6f6e6578697374656e7420746f6b656e0000000000000000000000000000006020830152604082019050919050565b6000612d0a602c83613515565b91507f4552433732313a20617070726f76656420717565727920666f72206e6f6e657860008301527f697374656e7420746f6b656e00000000000000000000000000000000000000006020830152604082019050919050565b6000612d70602983613515565b91507f4552433732313a207472616e73666572206f6620746f6b656e2074686174206960008301527f73206e6f74206f776e00000000000000000000000000000000000000000000006020830152604082019050919050565b6000612dd6602f83613515565b91507f4552433732314d657461646174613a2055524920717565727920666f72206e6f60008301527f6e6578697374656e7420746f6b656e00000000000000000000000000000000006020830152604082019050919050565b6000612e3c600a83613526565b91507f7b226e616d65223a2022000000000000000000000000000000000000000000006000830152600a82019050919050565b6000612e7c602183613515565b91507f4552433732313a20617070726f76616c20746f2063757272656e74206f776e6560008301527f72000000000000000000000000000000000000000000000000000000000000006020830152604082019050919050565b6000612ee2600a83613526565b91507f46495253545f574f5244000000000000000000000000000000000000000000006000830152600a82019050919050565b6000612f22601d83613526565b91507f646174613a6170706c69636174696f6e2f6a736f6e3b6261736536342c0000006000830152601d82019050919050565b6000612f62603183613515565b91507f4552433732313a207472616e736665722063616c6c6572206973206e6f74206f60008301527f776e6572206e6f7220617070726f7665640000000000000000000000000000006020830152604082019050919050565b612fc4816136b0565b82525050565b6000612fd68284612645565b915081905092915050565b6000612fed8285612645565b9150612ff98284612645565b91508190509392505050565b60006130118286612645565b915061301d8285612645565b91506130298284612645565b9150819050949350505050565b60006130428285612676565b915061304e8284612645565b915061305982612a3f565b91508190509392505050565b600061307082612801565b915061307c8284612645565b915081905092915050565b600061309282612999565b915061309e8284612645565b915081905092915050565b60006130b482612e2f565b91506130c08285612645565b91506130cb826128e7565b91506130d78284612645565b91506130e282612c17565b91508190509392505050565b60006130f982612ed5565b91506131058284612645565b915081905092915050565b600061311b82612f15565b91506131278284612645565b915081905092915050565b600060208201905061314760008301846125b5565b92915050565b600060808201905061316260008301876125b5565b61316f60208301866125b5565b61317c6040830185612fbb565b818103606083015261318e81846125d3565b905095945050505050565b60006040820190506131ae60008301856125b5565b6131bb6020830184612fbb565b9392505050565b60006020820190506131d760008301846125c4565b92915050565b600060208201905081810360008301526131f7818461260c565b905092915050565b60006060820190508181036000830152613219818661260c565b90506132286020830185612fbb565b61323560408301846125b5565b949350505050565b60006020820190508181036000830152613256816126f5565b9050919050565b600060208201905081810360008301526132768161275b565b9050919050565b60006020820190508181036000830152613296816127c1565b9050919050565b600060208201905081810360008301526132b681612841565b9050919050565b600060208201905081810360008301526132d6816128a7565b9050919050565b600060208201905081810360008301526132f6816129d9565b9050919050565b6000602082019050818103600083015261331681612a7f565b9050919050565b6000602082019050818103600083015261333681612ae5565b9050919050565b6000602082019050818103600083015261335681612b4b565b9050919050565b6000602082019050818103600083015261337681612bb1565b9050919050565b6000602082019050818103600083015261339681612c57565b9050919050565b600060208201905081810360008301526133b681612c97565b9050919050565b600060208201905081810360008301526133d681612cfd565b9050919050565b600060208201905081810360008301526133f681612d63565b9050919050565b6000602082019050818103600083015261341681612dc9565b9050919050565b6000602082019050818103600083015261343681612e6f565b9050919050565b6000602082019050818103600083015261345681612f55565b9050919050565b60006020820190506134726000830184612fbb565b92915050565b6000604051905081810181811067ffffffffffffffff8211171561349f5761349e613835565b5b8060405250919050565b600067ffffffffffffffff8211156134c4576134c3613835565b5b601f19601f8301169050602081019050919050565b60008190508160005260206000209050919050565b600081519050919050565b600081519050919050565b600082825260208201905092915050565b600082825260208201905092915050565b600081905092915050565b600061353c826136b0565b9150613547836136b0565b9250827fffffffffffffffffffffffffffffffffffffffffffffffffffffffffffffffff0382111561357c5761357b6137a8565b5b828201905092915050565b6000613592826136b0565b915061359d836136b0565b9250826135ad576135ac6137d7565b5b828204905092915050565b60006135c3826136b0565b91506135ce836136b0565b9250817fffffffffffffffffffffffffffffffffffffffffffffffffffffffffffffffff0483118215151615613607576136066137a8565b5b828202905092915050565b600061361d826136b0565b9150613628836136b0565b92508282101561363b5761363a6137a8565b5b828203905092915050565b600061365182613690565b9050919050565b60008115159050919050565b60007fffffffff0000000000000000000000000000000000000000000000000000000082169050919050565b600073ffffffffffffffffffffffffffffffffffffffff82169050919050565b6000819050919050565b82818337600083830152505050565b60005b838110156136e75780820151818401526020810190506136cc565b838111156136f6576000848401525b50505050565b6000600282049050600182168061371457607f821691505b6020821081141561372857613727613806565b5b50919050565b6000613739826136b0565b91507fffffffffffffffffffffffffffffffffffffffffffffffffffffffffffffffff82141561376c5761376b6137a8565b5b600182019050919050565b6000613782826136b0565b915061378d836136b0565b92508261379d5761379c6137d7565b5b828206905092915050565b7f4e487b7100000000000000000000000000000000000000000000000000000000600052601160045260246000fd5b7f4e487b7100000000000000000000000000000000000000000000000000000000600052601260045260246000fd5b7f4e487b7100000000000000000000000000000000000000000000000000000000600052602260045260246000fd5b7f4e487b7100000000000000000000000000000000000000000000000000000000600052604160045260246000fd5b6000601f19601f8301169050919050565b61387e81613646565b811461388957600080fd5b50565b61389581613658565b81146138a057600080fd5b50565b6138ac81613664565b81146138b757600080fd5b50565b6138c3816136b0565b81146138ce57600080fd5b5056fe416e204e465420772f20494420257320686173206265656e206d696e74656420746f2025734142434445464748494a4b4c4d4e4f505152535455565758595a6162636465666768696a6b6c6d6e6f707172737475767778797a303132333435363738392b2fa2646970667358221220b6900e346dd06673f9e6bc3a09efb3e9d78ddb97270a564c49306d5db288e08f64736f6c634300080000333c73766720786d6c6e733d27687474703a2f2f7777772e77332e6f72672f323030302f73766727207072657365727665417370656374526174696f3d27784d696e594d696e206d656574272076696577426f783d273020302033353020333530273e3c7374796c653e2e62617365207b2066696c6c3a2077686974653b20666f6e742d66616d696c793a2073657269663b20666f6e742d73697a653a20323470783b207d3c2f7374796c653e3c726563742077696474683d273130302527206865696768743d2731303025272066696c6c3d27626c61636b27202f3e3c7465787420783d273530252720793d273530252720636c6173733d27626173652720646f6d696e616e742d626173656c696e653d276d6964646c652720746578742d616e63686f723d276d6964646c65273e",
  "linkReferences": {},
  "deployedLinkReferences": {}
}